:100000000C942A000C9434000C9434000C943400AA
:100010000C9434000C9434000C9434000C94340090
:100020000C9434000C9434000C9434000C94340080
:100030000C9434000C9434000C9434000C94340070
:100040000C9434000C9434000C9434000C94340060
:100050000C94340011241FBECFE5D4E0DEBFCDBF29
:100060000E943E000C9466000C94000088B38160EE
:1000700088BB089588B38E7F88BB089587B381605D
:1000800087BB87B3886087BB86B1866886B987B12E
:10009000806487B983B78D6183BF89B7826089BF68
:1000A00086B1806486B984B195B18139914040F0C0
:1000B0000E943A0087B3886087BB8DE88CBFF0CF81
:1000C0000E94360087B3877F87BBEACFF894FFCFC3
:00000001FF
