:100000000C942A000C9434000C9434000C943400AA
:100010000C9434000C9434000C9434000C94340090
:100020000C9434000C9434000C9434000C94340080
:100030000C9434000C9434000C9434000C94340070
:100040000C9434000C9434000C9434000C94340060
:100050000C94340011241FBECFE5D4E0DEBFCDBF29
:100060000E943A000C9452000C940000C09A08952B
:10007000C0980895B89A0E9436002FEF81E19AE760
:10008000215080409040E1F700C000000E943800FD
:100090002FEF81E19AE7215080409040E1F700C0C6
:0800A0000000E9CFF894FFCF46
:00000001FF
